{
  "_format": "hh-sol-artifact-1",
  "contractName": "ERC20RewardToken",
  "sourceName": "contracts/ERC20RewardToken.sol",
  "abi": [
    {
      "inputs": [
        {
          "internalType": "string",
          "name": "_name",
          "type": "string"
        },
        {
          "internalType": "string",
          "name": "_symbol",
          "type": "string"
        }
      ],
      "stateMutability": "nonpayable",
      "type": "constructor"
    },
    {
      "anonymous": false,
      "inputs": [
        {
          "indexed": true,
          "internalType": "address",
          "name": "owner",
          "type": "address"
        },
        {
          "indexed": true,
          "internalType": "address",
          "name": "spender",
          "type": "address"
        },
        {
          "indexed": false,
          "internalType": "uint256",
          "name": "value",
          "type": "uint256"
        }
      ],
      "name": "Approval",
      "type": "event"
    },
    {
      "anonymous": false,
      "inputs": [
        {
          "indexed": true,
          "internalType": "address",
          "name": "newMinter",
          "type": "address"
        }
      ],
      "name": "MinterUpdated",
      "type": "event"
    },
    {
      "anonymous": false,
      "inputs": [
        {
          "indexed": true,
          "internalType": "address",
          "name": "from",
          "type": "address"
        },
        {
          "indexed": true,
          "internalType": "address",
          "name": "to",
          "type": "address"
        },
        {
          "indexed": false,
          "internalType": "uint256",
          "name": "value",
          "type": "uint256"
        }
      ],
      "name": "Transfer",
      "type": "event"
    },
    {
      "inputs": [
        {
          "internalType": "address",
          "name": "",
          "type": "address"
        },
        {
          "internalType": "address",
          "name": "",
          "type": "address"
        }
      ],
      "name": "allowance",
      "outputs": [
        {
          "internalType": "uint256",
          "name": "",
          "type": "uint256"
        }
      ],
      "stateMutability": "view",
      "type": "function"
    },
    {
      "inputs": [
        {
          "internalType": "address",
          "name": "spender",
          "type": "address"
        },
        {
          "internalType": "uint256",
          "name": "value",
          "type": "uint256"
        }
      ],
      "name": "approve",
      "outputs": [
        {
          "internalType": "bool",
          "name": "",
          "type": "bool"
        }
      ],
      "stateMutability": "nonpayable",
      "type": "function"
    },
    {
      "inputs": [
        {
          "internalType": "address",
          "name": "",
          "type": "address"
        }
      ],
      "name": "balanceOf",
      "outputs": [
        {
          "internalType": "uint256",
          "name": "",
          "type": "uint256"
        }
      ],
      "stateMutability": "view",
      "type": "function"
    },
    {
      "inputs": [],
      "name": "decimals",
      "outputs": [
        {
          "internalType": "uint8",
          "name": "",
          "type": "uint8"
        }
      ],
      "stateMutability": "view",
      "type": "function"
    },
    {
      "inputs": [
        {
          "internalType": "address",
          "name": "to",
          "type": "address"
        },
        {
          "internalType": "uint256",
          "name": "value",
          "type": "uint256"
        }
      ],
      "name": "mint",
      "outputs": [],
      "stateMutability": "nonpayable",
      "type": "function"
    },
    {
      "inputs": [],
      "name": "minter",
      "outputs": [
        {
          "internalType": "address",
          "name": "",
          "type": "address"
        }
      ],
      "stateMutability": "view",
      "type": "function"
    },
    {
      "inputs": [],
      "name": "name",
      "outputs": [
        {
          "internalType": "string",
          "name": "",
          "type": "string"
        }
      ],
      "stateMutability": "view",
      "type": "function"
    },
    {
      "inputs": [],
      "name": "owner",
      "outputs": [
        {
          "internalType": "address",
          "name": "",
          "type": "address"
        }
      ],
      "stateMutability": "view",
      "type": "function"
    },
    {
      "inputs": [
        {
          "internalType": "address",
          "name": "_minter",
          "type": "address"
        }
      ],
      "name": "setMinter",
      "outputs": [],
      "stateMutability": "nonpayable",
      "type": "function"
    },
    {
      "inputs": [],
      "name": "symbol",
      "outputs": [
        {
          "internalType": "string",
          "name": "",
          "type": "string"
        }
      ],
      "stateMutability": "view",
      "type": "function"
    },
    {
      "inputs": [],
      "name": "totalSupply",
      "outputs": [
        {
          "internalType": "uint256",
          "name": "",
          "type": "uint256"
        }
      ],
      "stateMutability": "view",
      "type": "function"
    },
    {
      "inputs": [
        {
          "internalType": "address",
          "name": "to",
          "type": "address"
        },
        {
          "internalType": "uint256",
          "name": "value",
          "type": "uint256"
        }
      ],
      "name": "transfer",
      "outputs": [
        {
          "internalType": "bool",
          "name": "",
          "type": "bool"
        }
      ],
      "stateMutability": "nonpayable",
      "type": "function"
    },
    {
      "inputs": [
        {
          "internalType": "address",
          "name": "from",
          "type": "address"
        },
        {
          "internalType": "address",
          "name": "to",
          "type": "address"
        },
        {
          "internalType": "uint256",
          "name": "value",
          "type": "uint256"
        }
      ],
      "name": "transferFrom",
      "outputs": [
        {
          "internalType": "bool",
          "name": "",
          "type": "bool"
        }
      ],
      "stateMutability": "nonpayable",
      "type": "function"
    }
  ],
  "bytecode": "0x60a0604052601260ff1660809060ff168152503480156200001f57600080fd5b506040516200187f3803806200187f833981810160405281019062000045919062000245565b816000908162000056919062000515565b50806001908162000068919062000515565b5033600560006101000a81548173ffffffffffffffffffffffffffffffffffffffff021916908373ffffffffffffffffffffffffffffffffffffffff1602179055505050620005fc565b6000604051905090565b600080fd5b600080fd5b600080fd5b600080fd5b6000601f19601f8301169050919050565b7f4e487b7100000000000000000000000000000000000000000000000000000000600052604160045260246000fd5b6200011b82620000d0565b810181811067ffffffffffffffff821117156200013d576200013c620000e1565b5b80604052505050565b600062000152620000b2565b905062000160828262000110565b919050565b600067ffffffffffffffff821115620001835762000182620000e1565b5b6200018e82620000d0565b9050602081019050919050565b60005b83811015620001bb5780820151818401526020810190506200019e565b60008484015250505050565b6000620001de620001d88462000165565b62000146565b905082815260208101848484011115620001fd57620001fc620000cb565b5b6200020a8482856200019b565b509392505050565b600082601f8301126200022a5762000229620000c6565b5b81516200023c848260208601620001c7565b91505092915050565b600080604083850312156200025f576200025e620000bc565b5b600083015167ffffffffffffffff81111562000280576200027f620000c1565b5b6200028e8582860162000212565b925050602083015167ffffffffffffffff811115620002b257620002b1620000c1565b5b620002c08582860162000212565b9150509250929050565b600081519050919050565b7f4e487b7100000000000000000000000000000000000000000000000000000000600052602260045260246000fd5b600060028204905060018216806200031d57607f821691505b602082108103620003335762000332620002d5565b5b50919050565b60008190508160005260206000209050919050565b60006020601f8301049050919050565b600082821b905092915050565b6000600883026200039d7fffffffffffffffffffffffffffffffffffffffffffffffffffffffffffffffff826200035e565b620003a986836200035e565b95508019841693508086168417925050509392505050565b6000819050919050565b6000819050919050565b6000620003f6620003f0620003ea84620003c1565b620003cb565b620003c1565b9050919050565b6000819050919050565b6200041283620003d5565b6200042a6200042182620003fd565b8484546200036b565b825550505050565b600090565b6200044162000432565b6200044e81848462000407565b505050565b5b8181101562000476576200046a60008262000437565b60018101905062000454565b5050565b601f821115620004c5576200048f8162000339565b6200049a846200034e565b81016020851015620004aa578190505b620004c2620004b9856200034e565b83018262000453565b50505b505050565b600082821c905092915050565b6000620004ea60001984600802620004ca565b1980831691505092915050565b6000620005058383620004d7565b9150826002028217905092915050565b6200052082620002ca565b67ffffffffffffffff8111156200053c576200053b620000e1565b5b62000548825462000304565b620005558282856200047a565b600060209050601f8311600181146200058d576000841562000578578287015190505b620005848582620004f7565b865550620005f4565b601f1984166200059d8662000339565b60005b82811015620005c757848901518255600182019150602085019450602081019050620005a0565b86831015620005e75784890151620005e3601f891682620004d7565b8355505b6001600288020188555050505b505050505050565b6080516112676200061860003960006105ee01526112676000f3fe608060405234801561001057600080fd5b50600436106100cf5760003560e01c806340c10f191161008c57806395d89b411161006657806395d89b4114610216578063a9059cbb14610234578063dd62ed3e14610264578063fca3b5aa14610294576100cf565b806340c10f19146101ac57806370a08231146101c85780638da5cb5b146101f8576100cf565b806306fdde03146100d457806307546172146100f2578063095ea7b31461011057806318160ddd1461014057806323b872dd1461015e578063313ce5671461018e575b600080fd5b6100dc6102b0565b6040516100e99190610ca2565b60405180910390f35b6100fa61033e565b6040516101079190610d05565b60405180910390f35b61012a60048036038101906101259190610d87565b610364565b6040516101379190610de2565b60405180910390f35b610148610456565b6040516101559190610e0c565b60405180910390f35b61017860048036038101906101739190610e27565b61045c565b6040516101859190610de2565b60405180910390f35b6101966105ec565b6040516101a39190610e96565b60405180910390f35b6101c660048036038101906101c19190610d87565b610610565b005b6101e260048036038101906101dd9190610eb1565b6106ae565b6040516101ef9190610e0c565b60405180910390f35b6102006106c6565b60405161020d9190610d05565b60405180910390f35b61021e6106ec565b60405161022b9190610ca2565b60405180910390f35b61024e60048036038101906102499190610d87565b61077a565b60405161025b9190610de2565b60405180910390f35b61027e60048036038101906102799190610ede565b610791565b60405161028b9190610e0c565b60405180910390f35b6102ae60048036038101906102a99190610eb1565b6107b6565b005b600080546102bd90610f4d565b80601f01602080910402602001604051908101604052809291908181526020018280546102e990610f4d565b80156103365780601f1061030b57610100808354040283529160200191610336565b820191906000526020600020905b81548152906001019060200180831161031957829003601f168201915b505050505081565b600660009054906101000a900473ffffffffffffffffffffffffffffffffffffffff1681565b600081600460003373ffffffffffffffffffffffffffffffffffffffff1673ffffffffffffffffffffffffffffffffffffffff16815260200190815260200160002060008573ffffffffffffffffffffffffffffffffffffffff1673ffffffffffffffffffffffffffffffffffffffff168152602001908152602001600020819055508273ffffffffffffffffffffffffffffffffffffffff163373ffffffffffffffffffffffffffffffffffffffff167f8c5be1e5ebec7d5bd14f71427d1e84f3dd0314c0f7b2291e5b200ac8c7c3b925846040516104449190610e0c565b60405180910390a36001905092915050565b60025481565b600080600460008673ffffffffffffffffffffffffffffffffffffffff1673ffffffffffffffffffffffffffffffffffffffff16815260200190815260200160002060003373ffffffffffffffffffffffffffffffffffffffff1673ffffffffffffffffffffffffffffffffffffffff16815260200190815260200160002054905082811015610521576040517f08c379a000000000000000000000000000000000000000000000000000000000815260040161051890610fca565b60405180910390fd5b7fffffffffffffffffffffffffffffffffffffffffffffffffffffffffffffffff81146105d55782816105549190611019565b600460008773ffffffffffffffffffffffffffffffffffffffff1673ffffffffffffffffffffffffffffffffffffffff16815260200190815260200160002060003373ffffffffffffffffffffffffffffffffffffffff1673ffffffffffffffffffffffffffffffffffffffff168152602001908152602001600020819055505b6105e08585856108cd565b60019150509392505050565b7f000000000000000000000000000000000000000000000000000000000000000081565b600660009054906101000a900473ffffffffffffffffffffffffffffffffffffffff1673ffffffffffffffffffffffffffffffffffffffff163373ffffffffffffffffffffffffffffffffffffffff16146106a0576040517f08c379a000000000000000000000000000000000000000000000000000000000815260040161069790611099565b60405180910390fd5b6106aa8282610aca565b5050565b60036020528060005260406000206000915090505481565b600560009054906101000a900473ffffffffffffffffffffffffffffffffffffffff1681565b600180546106f990610f4d565b80601f016020809104026020016040519081016040528092919081815260200182805461072590610f4d565b80156107725780601f1061074757610100808354040283529160200191610772565b820191906000526020600020905b81548152906001019060200180831161075557829003601f168201915b505050505081565b60006107873384846108cd565b6001905092915050565b6004602052816000526040600020602052806000526040600020600091509150505481565b600560009054906101000a900473ffffffffffffffffffffffffffffffffffffffff1673ffffffffffffffffffffffffffffffffffffffff163373ffffffffffffffffffffffffffffffffffffffff1614610846576040517f08c379a000000000000000000000000000000000000000000000000000000000815260040161083d90611105565b60405180910390fd5b80600660006101000a81548173ffffffffffffffffffffffffffffffffffffffff021916908373ffffffffffffffffffffffffffffffffffffffff1602179055508073ffffffffffffffffffffffffffffffffffffffff167fad0f299ec81a386c98df0ac27dae11dd020ed1b56963c53a7292e7a3a314539a60405160405180910390a250565b600073ffffffffffffffffffffffffffffffffffffffff168273ffffffffffffffffffffffffffffffffffffffff160361093c576040517f08c379a000000000000000000000000000000000000000000000000000000000815260040161093390611171565b60405180910390fd5b6000600360008573ffffffffffffffffffffffffffffffffffffffff1673ffffffffffffffffffffffffffffffffffffffff168152602001908152602001600020549050818110156109c3576040517f08c379a00000000000000000000000000000000000000000000000000000000081526004016109ba906111dd565b60405180910390fd5b818103600360008673ffffffffffffffffffffffffffffffffffffffff1673ffffffffffffffffffffffffffffffffffffffff1681526020019081526020016000208190555081600360008573ffffffffffffffffffffffffffffffffffffffff1673ffffffffffffffffffffffffffffffffffffffff1681526020019081526020016000206000828254610a5891906111fd565b925050819055508273ffffffffffffffffffffffffffffffffffffffff168473ffffffffffffffffffffffffffffffffffffffff167fddf252ad1be2c89b69c2b068fc378daa952ba7f163c4a11628f55a4df523b3ef84604051610abc9190610e0c565b60405180910390a350505050565b600073ffffffffffffffffffffffffffffffffffffffff168273ffffffffffffffffffffffffffffffffffffffff1603610b39576040517f08c379a0000000000000000000000000000000000000000000000000000000008152600401610b3090611171565b60405180910390fd5b8060026000828254610b4b91906111fd565b9250508190555080600360008473ffffffffffffffffffffffffffffffffffffffff1673ffffffffffffffffffffffffffffffffffffffff1681526020019081526020016000206000828254610ba191906111fd565b925050819055508173ffffffffffffffffffffffffffffffffffffffff16600073ffffffffffffffffffffffffffffffffffffffff167fddf252ad1be2c89b69c2b068fc378daa952ba7f163c4a11628f55a4df523b3ef83604051610c069190610e0c565b60405180910390a35050565b600081519050919050565b600082825260208201905092915050565b60005b83811015610c4c578082015181840152602081019050610c31565b60008484015250505050565b6000601f19601f8301169050919050565b6000610c7482610c12565b610c7e8185610c1d565b9350610c8e818560208601610c2e565b610c9781610c58565b840191505092915050565b60006020820190508181036000830152610cbc8184610c69565b905092915050565b600073ffffffffffffffffffffffffffffffffffffffff82169050919050565b6000610cef82610cc4565b9050919050565b610cff81610ce4565b82525050565b6000602082019050610d1a6000830184610cf6565b92915050565b600080fd5b610d2e81610ce4565b8114610d3957600080fd5b50565b600081359050610d4b81610d25565b92915050565b6000819050919050565b610d6481610d51565b8114610d6f57600080fd5b50565b600081359050610d8181610d5b565b92915050565b60008060408385031215610d9e57610d9d610d20565b5b6000610dac85828601610d3c565b9250506020610dbd85828601610d72565b9150509250929050565b60008115159050919050565b610ddc81610dc7565b82525050565b6000602082019050610df76000830184610dd3565b92915050565b610e0681610d51565b82525050565b6000602082019050610e216000830184610dfd565b92915050565b600080600060608486031215610e4057610e3f610d20565b5b6000610e4e86828701610d3c565b9350506020610e5f86828701610d3c565b9250506040610e7086828701610d72565b9150509250925092565b600060ff82169050919050565b610e9081610e7a565b82525050565b6000602082019050610eab6000830184610e87565b92915050565b600060208284031215610ec757610ec6610d20565b5b6000610ed584828501610d3c565b91505092915050565b60008060408385031215610ef557610ef4610d20565b5b6000610f0385828601610d3c565b9250506020610f1485828601610d3c565b9150509250929050565b7f4e487b7100000000000000000000000000000000000000000000000000000000600052602260045260246000fd5b60006002820490506001821680610f6557607f821691505b602082108103610f7857610f77610f1e565b5b50919050565b7f616c6c6f77616e63650000000000000000000000000000000000000000000000600082015250565b6000610fb4600983610c1d565b9150610fbf82610f7e565b602082019050919050565b60006020820190508181036000830152610fe381610fa7565b9050919050565b7f4e487b7100000000000000000000000000000000000000000000000000000000600052601160045260246000fd5b600061102482610d51565b915061102f83610d51565b925082820390508181111561104757611046610fea565b5b92915050565b7f4e6f74206d696e74657200000000000000000000000000000000000000000000600082015250565b6000611083600a83610c1d565b915061108e8261104d565b602082019050919050565b600060208201905081810360008301526110b281611076565b9050919050565b7f4e6f74206f776e65720000000000000000000000000000000000000000000000600082015250565b60006110ef600983610c1d565b91506110fa826110b9565b602082019050919050565b6000602082019050818103600083015261111e816110e2565b9050919050565b7f746f207a65726f00000000000000000000000000000000000000000000000000600082015250565b600061115b600783610c1d565b915061116682611125565b602082019050919050565b6000602082019050818103600083015261118a8161114e565b9050919050565b7f62616c616e636500000000000000000000000000000000000000000000000000600082015250565b60006111c7600783610c1d565b91506111d282611191565b602082019050919050565b600060208201905081810360008301526111f6816111ba565b9050919050565b600061120882610d51565b915061121383610d51565b925082820190508082111561122b5761122a610fea565b5b9291505056fea2646970667358221220e0a02574a05ea79b8b7a9c9c5c922580df12ea74c476c88d44981da038db2a8e64736f6c63430008140033",
  "linkReferences": {},
  "deployedLinkReferences": {}
}