{
  "_format": "hh-sol-artifact-1",
  "contractName": "TowerDefense",
  "sourceName": "contracts/TowerDefense.sol",
  "abi": [
    {
      "inputs": [
        {
          "internalType": "address",
          "name": "_rewardToken",
          "type": "address"
        }
      ],
      "stateMutability": "nonpayable",
      "type": "constructor"
    },
    {
      "anonymous": false,
      "inputs": [
        {
          "indexed": true,
          "internalType": "address",
          "name": "player",
          "type": "address"
        }
      ],
      "name": "Registered",
      "type": "event"
    },
    {
      "anonymous": false,
      "inputs": [
        {
          "indexed": true,
          "internalType": "address",
          "name": "player",
          "type": "address"
        },
        {
          "indexed": false,
          "internalType": "uint256",
          "name": "towers",
          "type": "uint256"
        },
        {
          "indexed": false,
          "internalType": "uint256",
          "name": "totalDamage",
          "type": "uint256"
        }
      ],
      "name": "TowerBuilt",
      "type": "event"
    },
    {
      "anonymous": false,
      "inputs": [
        {
          "indexed": true,
          "internalType": "address",
          "name": "player",
          "type": "address"
        },
        {
          "indexed": false,
          "internalType": "bool",
          "name": "win",
          "type": "bool"
        },
        {
          "indexed": false,
          "internalType": "uint256",
          "name": "newScore",
          "type": "uint256"
        }
      ],
      "name": "WaveResult",
      "type": "event"
    },
    {
      "inputs": [],
      "name": "buildTower",
      "outputs": [],
      "stateMutability": "payable",
      "type": "function"
    },
    {
      "inputs": [
        {
          "internalType": "address",
          "name": "who",
          "type": "address"
        }
      ],
      "name": "getPlayer",
      "outputs": [
        {
          "internalType": "uint256",
          "name": "",
          "type": "uint256"
        },
        {
          "internalType": "uint256",
          "name": "",
          "type": "uint256"
        },
        {
          "internalType": "uint256",
          "name": "",
          "type": "uint256"
        }
      ],
      "stateMutability": "view",
      "type": "function"
    },
    {
      "inputs": [],
      "name": "owner",
      "outputs": [
        {
          "internalType": "address",
          "name": "",
          "type": "address"
        }
      ],
      "stateMutability": "view",
      "type": "function"
    },
    {
      "inputs": [
        {
          "internalType": "address",
          "name": "",
          "type": "address"
        }
      ],
      "name": "players",
      "outputs": [
        {
          "internalType": "uint256",
          "name": "score",
          "type": "uint256"
        },
        {
          "internalType": "uint256",
          "name": "towers",
          "type": "uint256"
        },
        {
          "internalType": "uint256",
          "name": "totalDamage",
          "type": "uint256"
        }
      ],
      "stateMutability": "view",
      "type": "function"
    },
    {
      "inputs": [],
      "name": "register",
      "outputs": [],
      "stateMutability": "payable",
      "type": "function"
    },
    {
      "inputs": [],
      "name": "rewardPerWin",
      "outputs": [
        {
          "internalType": "uint256",
          "name": "",
          "type": "uint256"
        }
      ],
      "stateMutability": "view",
      "type": "function"
    },
    {
      "inputs": [],
      "name": "rewardToken",
      "outputs": [
        {
          "internalType": "contract IRewardToken",
          "name": "",
          "type": "address"
        }
      ],
      "stateMutability": "view",
      "type": "function"
    },
    {
      "inputs": [
        {
          "internalType": "uint256",
          "name": "amount",
          "type": "uint256"
        }
      ],
      "name": "setRewardPerWin",
      "outputs": [],
      "stateMutability": "nonpayable",
      "type": "function"
    },
    {
      "inputs": [],
      "name": "startWave",
      "outputs": [
        {
          "internalType": "bool",
          "name": "win",
          "type": "bool"
        }
      ],
      "stateMutability": "nonpayable",
      "type": "function"
    }
  ],
  "bytecode": "0x6080604052678ac7230489e8000060035534801561001c57600080fd5b50604051610f87380380610f87833981810160405281019061003e9190610129565b33600160006101000a81548173ffffffffffffffffffffffffffffffffffffffff021916908373ffffffffffffffffffffffffffffffffffffffff16021790555080600260006101000a81548173ffffffffffffffffffffffffffffffffffffffff021916908373ffffffffffffffffffffffffffffffffffffffff16021790555050610156565b600080fd5b600073ffffffffffffffffffffffffffffffffffffffff82169050919050565b60006100f6826100cb565b9050919050565b610106816100eb565b811461011157600080fd5b50565b600081519050610123816100fd565b92915050565b60006020828403121561013f5761013e6100c6565b5b600061014d84828501610114565b91505092915050565b610e22806101656000396000f3fe6080604052600436106100865760003560e01c8063a7f6d24911610059578063a7f6d2491461012a578063de34c87114610134578063e2eb41ff1461015f578063e75eb0421461019e578063f7c618c1146101c757610086565b80631aa3a0081461008b5780632921edfe146100955780635c12cd4b146100c05780638da5cb5b146100ff575b600080fd5b6100936101f2565b005b3480156100a157600080fd5b506100aa6102fd565b6040516100b79190610840565b60405180910390f35b3480156100cc57600080fd5b506100e760048036038101906100e291906108be565b61051f565b6040516100f693929190610904565b60405180910390f35b34801561010b57600080fd5b506101146105ab565b604051610121919061094a565b60405180910390f35b6101326105d1565b005b34801561014057600080fd5b50610149610735565b6040516101569190610965565b60405180910390f35b34801561016b57600080fd5b50610186600480360381019061018191906108be565b61073b565b60405161019593929190610904565b60405180910390f35b3480156101aa57600080fd5b506101c560048036038101906101c091906109ac565b610765565b005b3480156101d357600080fd5b506101dc6107ff565b6040516101e99190610a38565b60405180910390f35b6509184e72a00034101561023b576040517f08c379a000000000000000000000000000000000000000000000000000000000815260040161023290610ad6565b60405180910390fd5b6040518060600160405280600081526020016000815260200160008152506000803373ffffffffffffffffffffffffffffffffffffffff1673ffffffffffffffffffffffffffffffffffffffff1681526020019081526020016000206000820151816000015560208201518160010155604082015181600201559050503373ffffffffffffffffffffffffffffffffffffffff167f2d3734a8e47ac8316e500ac231c90a6e1848ca2285f40d07eaa52005e4b3a0e960405160405180910390a2565b6000806000803373ffffffffffffffffffffffffffffffffffffffff1673ffffffffffffffffffffffffffffffffffffffff16815260200190815260200160002090506000816001015411610387576040517f08c379a000000000000000000000000000000000000000000000000000000000815260040161037e90610b42565b60405180910390fd5b6000600a826000015461039a9190610b91565b601e6103a69190610bd3565b9050808260020154106104c05760018260000160008282546103c89190610bd3565b92505081905550600260009054906101000a900473ffffffffffffffffffffffffffffffffffffffff1673ffffffffffffffffffffffffffffffffffffffff166340c10f19336003546040518363ffffffff1660e01b815260040161042e929190610c07565b600060405180830381600087803b15801561044857600080fd5b505af115801561045c573d6000803e3d6000fd5b505050503373ffffffffffffffffffffffffffffffffffffffff167f350911ec8fd9f691a572c925897a18b9e53040ba2d0aaf8db66e7762d6d7cc1a600184600001546040516104ad929190610c30565b60405180910390a260019250505061051c565b3373ffffffffffffffffffffffffffffffffffffffff167f350911ec8fd9f691a572c925897a18b9e53040ba2d0aaf8db66e7762d6d7cc1a6000846000015460405161050d929190610c30565b60405180910390a26000925050505b90565b6000806000806000808673ffffffffffffffffffffffffffffffffffffffff1673ffffffffffffffffffffffffffffffffffffffff16815260200190815260200160002060405180606001604052908160008201548152602001600182015481526020016002820154815250509050806000015181602001518260400151935093509350509193909250565b600160009054906101000a900473ffffffffffffffffffffffffffffffffffffffff1681565b642e90edd000341015610619576040517f08c379a000000000000000000000000000000000000000000000000000000000815260040161061090610ccb565b60405180910390fd5b60008060003373ffffffffffffffffffffffffffffffffffffffff1673ffffffffffffffffffffffffffffffffffffffff168152602001908152602001600020905060648160010154106106a2576040517f08c379a000000000000000000000000000000000000000000000000000000000815260040161069990610d37565b60405180910390fd5b60018160010160008282546106b79190610bd3565b92505081905550600f8160020160008282546106d39190610bd3565b925050819055503373ffffffffffffffffffffffffffffffffffffffff167f79b85b054423d10b170019f2c6f8204299e1d81130f2547adf3a472a82c611848260010154836002015460405161072a929190610d57565b60405180910390a250565b60035481565b60006020528060005260406000206000915090508060000154908060010154908060020154905083565b600160009054906101000a900473ffffffffffffffffffffffffffffffffffffffff1673ffffffffffffffffffffffffffffffffffffffff163373ffffffffffffffffffffffffffffffffffffffff16146107f5576040517f08c379a00000000000000000000000000000000000000000000000000000000081526004016107ec90610dcc565b60405180910390fd5b8060038190555050565b600260009054906101000a900473ffffffffffffffffffffffffffffffffffffffff1681565b60008115159050919050565b61083a81610825565b82525050565b60006020820190506108556000830184610831565b92915050565b600080fd5b600073ffffffffffffffffffffffffffffffffffffffff82169050919050565b600061088b82610860565b9050919050565b61089b81610880565b81146108a657600080fd5b50565b6000813590506108b881610892565b92915050565b6000602082840312156108d4576108d361085b565b5b60006108e2848285016108a9565b91505092915050565b6000819050919050565b6108fe816108eb565b82525050565b600060608201905061091960008301866108f5565b61092660208301856108f5565b61093360408301846108f5565b949350505050565b61094481610880565b82525050565b600060208201905061095f600083018461093b565b92915050565b600060208201905061097a60008301846108f5565b92915050565b610989816108eb565b811461099457600080fd5b50565b6000813590506109a681610980565b92915050565b6000602082840312156109c2576109c161085b565b5b60006109d084828501610997565b91505092915050565b6000819050919050565b60006109fe6109f96109f484610860565b6109d9565b610860565b9050919050565b6000610a10826109e3565b9050919050565b6000610a2282610a05565b9050919050565b610a3281610a17565b82525050565b6000602082019050610a4d6000830184610a29565b92915050565b600082825260208201905092915050565b7f53652072657175696572656e20302e303030303120455448207061726120726560008201527f6769737472617273650000000000000000000000000000000000000000000000602082015250565b6000610ac0602983610a53565b9150610acb82610a64565b604082019050919050565b60006020820190508181036000830152610aef81610ab3565b9050919050565b7f4e6f20746f776572730000000000000000000000000000000000000000000000600082015250565b6000610b2c600983610a53565b9150610b3782610af6565b602082019050919050565b60006020820190508181036000830152610b5b81610b1f565b9050919050565b7f4e487b7100000000000000000000000000000000000000000000000000000000600052601160045260246000fd5b6000610b9c826108eb565b9150610ba7836108eb565b9250828202610bb5816108eb565b91508282048414831517610bcc57610bcb610b62565b5b5092915050565b6000610bde826108eb565b9150610be9836108eb565b9250828201905080821115610c0157610c00610b62565b5b92915050565b6000604082019050610c1c600083018561093b565b610c2960208301846108f5565b9392505050565b6000604082019050610c456000830185610831565b610c5260208301846108f5565b9392505050565b7f53652072657175696572656e20302e303030303030322045544820706172612060008201527f636f6e73747275697220746f7272650000000000000000000000000000000000602082015250565b6000610cb5602f83610a53565b9150610cc082610c59565b604082019050919050565b60006020820190508181036000830152610ce481610ca8565b9050919050565b7f746f6f206d616e7920746f776572730000000000000000000000000000000000600082015250565b6000610d21600f83610a53565b9150610d2c82610ceb565b602082019050919050565b60006020820190508181036000830152610d5081610d14565b9050919050565b6000604082019050610d6c60008301856108f5565b610d7960208301846108f5565b9392505050565b7f4e6f74206f776e65720000000000000000000000000000000000000000000000600082015250565b6000610db6600983610a53565b9150610dc182610d80565b602082019050919050565b60006020820190508181036000830152610de581610da9565b905091905056fea264697066735822122014cb645efb1fa3d31bd32f00a07cbc5690f0f6a4ea2bc0d3531a79c2dd6b653f64736f6c63430008140033",
  "linkReferences": {},
  "deployedLinkReferences": {}
}